:100000008831382CFF3FFF3F70082000D500710871
:10001000D4007208D3007308D2007408D1007508A8
:10002000D0008031883123238031111C22280130F7
:100030006C02F00000306D3BF1007008EC007108BC
:10004000ED0011105508F0005408F1005308F200BB
:100050005208F3005108F4005008F50009001E3062
:100060003D00990030302100C1000030C20041083D
:1000700086004208870081134108860042088700F5
:1000800001130430410786000030423D870001170C
:1000900038302000E7000030E80067088600680874
:1000A0008700811367088600680887000113043001
:1000B000670786000030683D870001170230210085
:1000C000410786000030423D87003D0881003E0820
:1000D000413181000130410786000030423D8700F8
:1000E0004030810041088400420885000008F0008B
:1000F00041088600420887004030700581004108B1
:100100008400420885000008F0004108860042088B
:1001100087008830700481004108BB004208BC00A1
:1001200004304106F0007008C100080020004208B9
:10013000013A031DB0284008F1001F30F105710895
:10014000003A031DB0282100A81720004108033AF7
:10015000031DAE2801302100C500B0282100C501D3
:1001600020004208003A031D43294008F1001F30D7
:10017000F1057108023A031D43294408F1000F30CC
:10018000F1057108003A031943292100A81720003E
:10019000C41BDF284408F3000F30F3057308F00098
:1001A000F101F035F10DBF30700784000030713D72
:1001B00085000008F40001310008F500F328440828
:1001C000F3000F30F3057308F000F101F035F10D85
:1001D0006530700784000030713D85000008F40030
:1001E00001310008F5004108033A031DFE28740898
:1001F0008600750887008430810043294408F00098
:100200000F30F0059830F2000E30F3007008F2075E
:100210000318F30A7208840073088500FE30000595
:10022000F00001310008F100FF30F105720886008E
:100230007308870070088100710841318100C41F74
:10024000322974088600750887008101043074061D
:10025000F0007008F40074088600750887004030CC
:100260008100432974088600750887008830810062
:1002700004307406F0007008F400740886007508F5
:100280008700C8308100080020004008F1001F30BE
:10029000F1057108013A03194E29EA294408003A88
:1002A00003195329EA294108063A031D9629892989
:1002B0006E08013A031D6F293630F0008D30F100D1
:1002C0001230F0070030F13D70082100A6007108DF
:1002D000A7000930A9000030AA00C030A800962964
:1002E00020006E08013A031D8429C930F0008C30CB
:1002F000F10070082100A6007108A7003B30A9009A
:100300000030AA00C030A800962921008030A80043
:10031000962920004308213A031958294308223A14
:10032000031970294308233A03198529200040083E
:10033000F1006030F1050530F00070080319A329C1
:10034000F136FF3E9E297108013A0319A829EA29CE
:10035000D129EA29EA2960302100A6000030A7004F
:100360000130A9000030AA00C130A800EA2921000C
:100370008030A80020004308E000EA295F30210017
:10038000A6000030A7000130A9000030AA0081308B
:10039000A800EA2921008030A80020004208DF00E0
:1003A000EA2920004108013A0319A9294108093A1C
:1003B0000319AA294108023A0319AB2941080A3A4C
:1003C0000319B7294108033A0319BE2941080B3A1A
:1003D0000319CA2908002000C801C901372A2100D1
:1003E000A8172000481421004508013A031DFA29E6
:1003F0002000C8144F2A2100A8174F2A2100A8174F
:100400002000C41B182A4408F3000F30F3057308BA
:10041000F000F101F035F10DBF30700784000030BD
:10042000713D85000008F40001310008F5002C2A18
:100430004408F3000F30F3057308F000F101F035C4
:10044000F10D6530700784000030713D85000008B3
:10045000F40001310008F500740884007508850077
:100460000008F100711D362A0130C8004F2A4008EB
:10047000F1001F30F1057108003A0319EF29400817
:10048000F1001F30F1057108013A0319FB294008FA
:10049000F1001F30F1057108023A0319FE2921000D
:1004A000A81F592A4830A6000030A700281402309F
:1004B000A9000800003021002A02031D612A08302B
:1004C00029020318752A2908F2002A08F3004408B3
:1004D000003A031D6E2A0130C400742A4408013A10
:1004E000031D742A0230C400792A0830F20000305B
:1004F000F300200065088600660887008110650803
:10050000860066088700011065088400660885007B
:100510000008F0006508860066088700730870040C
:1005200081000130650786000030663D8700720853
:100530008100720821002902F00073082A3BF100B3
:100540007008A9007108AA004830B3000030B40058
:100550002818D32A720873040319D22A26088400A3
:10056000270885000008F00033088600340887005B
:1005700070088100B30A0319B40A01302607F0009D
:100580000030273DF1007008A6007108A700013077
:100590007202F0000030733BF1007008F200710845
:1005A000F300AA2AF92A720873040319F92A260803
:1005B0008400270885003308860034088700000877
:1005C0008100B30A0319B40A01302607F000003095
:1005D000273DF1007008A6007108A70001307202E3
:1005E000F0000030733BF1007008F2007108F30076
:1005F000D32A08002100A8173D0099012100C3015A
:1006000020004208EE006E08003A031D0B2B10304C
:100610002100C6000F2B21002030C6002F2008002B
:1006200020004008803A031D7E2BC0302100A80026
:10063000702B21005F30F0008D30F1007008A600B3
:100640007108A7001230A9000030AA007E2B2000FC
:100650004208F000F101F035F10D693070078400B7
:100660000030713D850000082100A600013100081E
:10067000A7000230260784000030273D85000008CF
:10068000F00001310008F1007008A9007108AA000B
:100690007E2B2000420821003502031C6B2B20001A
:1006A0004208F000F101F035F10DA0307007840030
:1006B0000030713D850000082100A60001310008CE
:1006C000A70026088400270885000008F0007008AD
:1006D000A900AA016C2BA8017E2B2100A8017E2B6A
:1006E00020004308013A0319192B4308023A031961
:1006F000272B4308033A0319492B6D2B08003D00B3
:100700000E122100A81BD02B2000D81FB02B0230C6
:10071000E1000130650786000030663D87008101F9
:100720006508860066088700C830810001306307CD
:1007300086000030643D8700083081000230630786
:1007400086000030643D8700483081000030413130
:1007500081006308860064088700C8308100CF2BC1
:100760000130630786000030643D87000830810057
:100770000230630786000030643D8700403081000E
:1007800000304131810063088600640887008C30A6
:1007900081006508860066088700843081005D2C32
:1007A0002000D81B5D2CC01F352C21002A082000FA
:1007B0004702031DDF2B21002908200046020318F1
:1007C000E82B46082100A900200047082100AA00C4
:1007D0005A2201302000E10001306307860000301A
:1007E000643D8700083081000230630786000030D6
:1007F000643D870040308100003041318100630852
:1008000086006408870080308100E2010130210009
:100810002B07860000302C3D870008308100023015
:100820002B07860000302C3D8700403081000030CF
:10083000413181002B0886002C088700843081001C
:1008400001302000E2000230650786000030663D7E
:100850008700483081000030413181006508860002
:1008600066088700C83081005D2C0230E10001304D
:10087000650786000030663D8700810165088600B7
:1008800066088700C83081000130630786000030A9
:10089000643D870008308100023063078600003025
:1008A000643D870048308100003041318100630899
:1008B000860064088700C830810008002000E1013C
:1008C0006508860066088700810104306506860099
:1008D00066088700003087068101D81F702CD81366
:1008E0000800013021002B07840000302C3D8500DA
:1008F0000008F0007008F200003020005A02031DCA
:10090000832C720859020318882C5908F200922C83
:1009100072085902F00000305A3BF1007008D9000B
:100920007108DA00F301720873020318B32C48301F
:10093000840000308500730884070318850A0008C6
:10094000F0005608860057088700700881000130C3
:100950005607F0000030573DF1007008D6007108CE
:10096000D700F30A932C5A08003C031DB92C5908F0
:10097000003C0318E72C0130630786000030643D1B
:100980008700083081000230630786000030643D34
:1009900087004830810000304131810021002B0860
:1009A00084002C0885000008F000701BDF2C20005C
:1009B0006308860064088700C8308100E62C2000A8
:1009C000630886006408870088308100012D0130AB
:1009D000630786000030643D8700083081000230E4
:1009E000630786000030643D87004030810000309E
:1009F00041318100630886006408870084308100EB
:100A0000D813080020004008F1006030F1050530DF
:100A1000F000700803190F2DF136FF3E0A2D710802
:100A2000003A0319142D7B2D4E2D2100A8170830F4
:100A3000C6007B2D10237B2DFA227B2D21006E30EA
:100A4000A6000030A70028140130A900A8177B2DAC
:100A5000EB217B2D96207B2DC330F0000030F10080
:100A60004408F0070318F10A70082100A600710875
:100A7000A70028140130A900A8177B2D2100A81772
:100A8000C330860000308700200044088607031822
:100A9000870A420881007B2D7B2D7B2D4108053A7A
:100AA0000319152D4108063A03191A2D4108093A70
:100AB00003191C2D4108083A03191E2D4108003A5C
:100AC0000319282D4108013A03192A2D4108033A38
:100AD00003192A2D41080A3A03192C2D41080B3A13
:100AE00003193E2D4108073A03194C2D41080C3AD1
:100AF00003194D2D4D2D080036302000E9008D30B2
:100B0000EA00FC302100A0008730A1000430A200E0
:100B10008D30A3007D30A4008C30A5000800163075
:100B20003D0091009F3097003B309200080020006C
:100B30006F0803199C2D442108000430200065062D
:100B4000F0007008E50021004608083A031DB72DA3
:100B5000200042083D0096001608003C0318B42D02
:100B600010302100C600B72D21000430C60020003F
:100B70006108013A031DFA2D023065078600003036
:100B8000663D8700483081000030413181005A22A3
:100B90004408023A031DD42D20006508860066082B
:100BA000870084308100F92D200004306506F000B4
:100BB0007008E50065088400660885000008F000FC
:100BC000701BEE2D04306506F0007008E500650826
:100BD000860066088700C8308100F92D043065065C
:100BE000F0007008E5006508860066088700883018
:100BF0008100FB2D5E240800200065088400660843
:100C000085000008F000F01F0A2E650886006608BF
:100C1000870081012100C4012000E1012100A90118
:100C2000AA01A801022597257F23080020001211A0
:100C300008003D008E101211101D212EFB30900572
:100C40001C2E08003D001215EF3090058E14080090
:100C50003D00181C4A2E21002B0884002C0885001A
:100C60000008F1007108803A031D482E2000650835
:100C70008400660885000008F1007108843A031DAD
:100C8000482E21002B0886002C0887008C3081001C
:100C90003D001810DF309005080020006108023A7E
:100CA000031D542E7124742E5E246208003A031D25
:100CB000732E0130630786000030643D87000830E2
:100CC00081000230630786000030643D87004030B9
:100CD000810000304131810063088600640887008C
:100CE0008C308100742EE20108007C25BB01BC0120
:100CF000B101B2013D00930190018F250E179601BD
:100D000099010E132100B601B70100303702031D0F
:100D10008B2E083036020318A62E3608F00037084E
:100D2000F100F035F10DF035F10D2030700786003F
:100D30000030713D870081014131810141318101E4
:100D400041318101B60A0319B70A852E16303D00DC
:100D50009800901DAE2EF7309005A92E2100A80115
:100D60002000D801D901DA013D000E122830200000
:100D7000E5000030E600EE012100C60108000B1777
:100D8000210012158B1708002100E501E601E7019B
:100D90000230630784000030643D85000008F500E0
:100DA0000330630784000030643D85000008F000D4
:100DB0007008F300F4017308F100F0017508700782
:100DC000F6000030713DF7006308F8006408F90090
:100DD0000130780784000030793D85000008F1007B
:100DE0007108023A031D082F06307807840000308E
:100DF000793D85000008F100710865020318082F8D
:100E00000630780784000030793D85000008E50051
:100E10000130780784000030793D85000008F1003A
:100E20007108043A031D282F083078078400003029
:100E3000793D85000008F100710865020318282F2C
:100E40000830780784000030793D85000008E5000F
:100E500078088400790885000008F00070086607AB
:100E6000F1000030673DF2007108E6007208E7000B
:100E700077087202031D3E2F76087102031C412F72
:100E80004C2F78088400790885000008F00070086D
:100E9000F8070030F93DE82E6508F0000800210051
:100EA0006408003A0319652F6308F000F101F0357A
:100EB000F10D6530700784000030713D8500000839
:100EC000F40001310008F500752F6308F000F1010E
:100ED000F035F10DBF30700784000030713D8500A2
:100EE0000008F40001310008F500023074078600A4
:100EF0000030753D8700650881006608413181003A
:100F00000130740786000030753D87006708810056
:100F100074088400750885000008F00074088600D5
:100F200075088700403070058100740884007508DA
:100F300085000008F0007408860075088700883076
:100F4000700481006408003A0319BF2F6308F000A1
:100F5000F101F035F10D65307007F2000030713DA0
:100F6000F300720884007308850004300006F00066
:100F7000720886007308870070088100D72F630805
:100F8000F000F101F035F10DBF307007F2000030D4
:100F9000713DF30072088400730885000430000678
:100FA000F0007208860073088700700881007408DA
:100FB000F0007508F1000800003021006406031DF0
:100FC000E32F00306306031DE72FF101F12F6308C3
:100FD0008400640885000008F0000030F01B013038
:100FE000F1007108F00008003D008E01920121001F
:100FF000C6010800F427080004340334093404341B
:1010000021004608003A031D12283D008E0192017E
:1010100080318F2588318E190F288E150B280130CD
:101020002100C6004608013A031D20283D008E1A03
:101030002028900192011214121602302100C600DD
:101040003D00101D2A28121D2A28FB3090058031F2
:10105000192688318E1C30288031162688312629A1
:101060003D00101C4E28121C4E28803175268831F8
:101070000430C60040302000A2000030A300083039
:10108000A10000302005F0007008A0008C30200482
:10109000F0007008A000FE303D009005101E57289B
:1010A000121E5728803122268831EF309005101FFC
:1010B0005D28121F5D28BF309005901E6428921E87
:1010C0006428803128268831901C6928921C692860
:1010D000930104302100460203187228803116263D
:1010E000883126293D00921D23292100E401043086
:1010F0006402031823293D00901D1F290F082100B9
:10110000B800F7303D009005783021003805F10037
:101110007108003A031D1E29FD303805F100F20167
:10112000FF30F20500307206031D9828003071066A
:10113000031D0B297E303805F1007108F300F336EA
:101140007308F000F101F035F10DF035F10D2030AC
:101150007007F2000030713DF3007208AB007308B5
:10116000AC0072082000E3007308E400043063065A
:10117000F0007008E300720884007308850000081E
:10118000F0007008F1003C30F105F136F1367108DD
:101190000D3A031D0729023021002B07840000307F
:1011A0002C3D85000008F10001310008F2007208B2
:1011B000003A031DDD2848307106031D0329023063
:1011C0002B07860000302C3D870040308100003026
:1011D00041318100E30108306302031803294030E4
:1011E000860000308700630886070318870A4830A6
:1011F000840000308500630884070318850A00080E
:101200008100E30AEB288031FC2588310A298031EE
:101210004D2688311D29FD3021003805F100F201ED
:10122000FF30F20500307206031D182904307106E4
:10123000031D1D2980319D2588311E292029232940
:101240002100E40A772880311626883108005F30B3
:10125000F0008D30F1000E30700784000030713DD9
:1012600085000008F2007208F3000F307007840058
:101270000030713D85000008F1007108720203180A
:101280004D295F30F0008D30F1000F307007840081
:101290000030713D85000008F3005F30F0008D30B4
:1012A000F1001030700784000030713D85000008A7
:1012B000F10071087302031869295F30F0008D3066
:1012C000F1001030700784000030713D8500000887
:1012D000F3007308F0000800203021004602031CD0
:1012E00075293D008E1875297729F001CA2921003A
:1012F0003108E3003208E4008031DC2788317008CF
:10130000031DC9296008E3000130E4005D08E50021
:101310005E08E6005F08E70080314F2788317008DB
:10132000B1007108B200AD01AE01AF01B0013108EA
:10133000E3003208E4008031DC27883170080319AB
:10134000B2290130F1007108003A031DA8290020DC
:1013500021002D082E042F0430040319B129F001B7
:10136000CA2997293108E1003208E200003032062C
:10137000031DBC29003031060319C729013061075C
:1013800084000030623D85000008F000CA29F001A9
:10139000CA29F001080021004608003A031DE1298E
:1013A0003D008E01920180318F2588318031BF262A
:1013B00088313D008E19DE298E15D9290130210092
:1013C000C6000800272170082100DD003630E30048
:1013D0008D30E4008031C42688317008DE005D085D
:1013E00070020318F6295D08F000F8295E08F00085
:1013F000080021005908DD005A08DE005B08DF0004
:101400000130E0006C210800E2217008B5000130D5
:101410002000EF0021005908BD005A08BE005B08FB
:10142000B9005C08BA008031752688310130F100BE
:101430007108013A031D1D2ACB2108002100D801A3
:1014400020304602031C282A3D008E18282A2A2A0A
:10145000F0015F2A21003B08E3003C08E4008031F2
:10146000DC2788317008031D5E2A3B08D6003C0843
:10147000D70000303C06031D3F2A00303B0603190D
:101480004B2A0130560784000030573D8500000884
:10149000F0007008D8005508E300E4015208E500A8
:1014A0005308E6005408E70080314F278831700860
:1014B000BB007108BC005808F0005F2AF00108006A
:1014C0002100C701C801C901CA01CB01CC01CD016E
:1014D000CE014F104F18B92AD030D9000030DA00B1
:1014E000C730DB000030DC000422D2014F18A32AF1
:1014F000323052020318A32A0730FB001730FC00D9
:101500006A30FD00FD0B822AFC0B822AFB0B822A2B
:10151000000022000C16C7302100D9000030DA008C
:101520000830DB00F9217008003A0130031900305F
:10153000F10071189D2A4F109E2A4F1422000C12A0
:101540002100D20A762A4F18B82A8031FA2788312A
:101550000230FA003130FB006230FC004530FD0003
:10156000FD0BB02AFC0BB02AFB0BB02AFA0BB02AF9
:101570006A2A1030FB003930FC000D30FD00FD0BF5
:10158000BF2AFC0BBF2AFB0BBF2A0000000008008B
:1015900021003D08D2003E08D3004030D400013085
:1015A000D5001E2208002100C701C8015108C9004A
:1015B000C730D9000030DA000830DB00F9214F18BD
:1015C000E22AD82AC901C730D9000030DA00083031
:1015D000DB00F9214F18ED2AE32A08008031FA27B1
:1015E00088314F10080012001E00F003031DF32A7B
:1015F000F103031DF32A080023008C018E01220051
:101600008C018E0121008C018E019513FC30990014
:101610001A180B2B082B1A1B0E2B0B2B27009B13B6
:101620001B169B172100CF01CF143D001116111579
:1016300032302000980022000C12210011140B17E8
:101640008B176022080021004608013A031D312B48
:101650003D008E1A312B9001121412160230210017
:10166000C6003D00101D3B2B121D3B2BFB3090058F
:101670008031192688318E1C412B80311626883105
:10168000372C3D00101C5F2B121C5F2B8031752600
:1016900088310430C60040302000A2000030A30092
:1016A0000830A10000302005F0007008A0008C3048
:1016B0002004F0007008A000FE303D009005101ED0
:1016C000682B121E682B803122268831EF3090055E
:1016D000101F6E2B121F6E2BBF309005901E752BA6
:1016E000921E752B803128268831901C7A2B921CF3
:1016F0007A2B93010430210046020318832B80319A
:1017000016268831372C3D00921D342C2100E9012A
:10171000043069020318342C3D00901D302C0F0852
:101720002100B800F7303D009005783021003805E1
:10173000F1007108003A031D2F2CFD303805F1002F
:10174000F201FF30F20500307206031DA92B0030B4
:101750007106031D1C2C7E303805F1007108F30062
:10176000F3367308F000F101F035F10DF035F10DAD
:1017700020307007F2000030713DF3007208AB00BA
:101780007308AC0072082000E3007308E400043022
:101790006306F0007008E300720884007308850097
:1017A0000008F0007008F1003C30F105F136F13628
:1017B00071080D3A031D182C023021002B078400FC
:1017C00000302C3D85000008F10001310008F200D6
:1017D0007208003A031DEE2B48307106031D142CCD
:1017E00002302B07860000302C3D870040308100FE
:1017F000003041318100E801083068020318142CE0
:101800004030860000308700680886070318870A82
:101810004830840000308500680884070318850A72
:1018200000088100E80AFC2B8031FC2588311B2C44
:1018300080314D2688312E2CFD3021003805F100F5
:10184000F201FF30F20500307206031D292C04302E
:101850007106031D2E2C80319D2588312F2C312CB3
:10186000342C2100E90A882B8031162688310800A3
:10187000FC225D302000EC000530ED002100CF1887
:10188000442C20001810462C2000181421004F1C56
:10189000792CC8227008013A031D5D2C50082000E5
:1018A000EB00EB18562C22000C12582C22000C16C0
:1018B0005D302000EC000530ED00200000306D06AA
:1018C000031D642C00306C06031D782C10302200A0
:1018D0008C0647302100D100D3224730D100D322DB
:1018E000103022008C065D302000EC000530ED0049
:1018F0007B2CEE226022462C7C2C4C340334543456
:10190000003468340034693400346E3400346B348D
:1019100000345034003461340034643400342034F2
:10192000003455340034533400344234003420340D
:1019300000344B340034653400347934003462347C
:1019400000346F3400346134003472340034643451
:101950000034203400347734003469340034743473
:101960000034683400342034003454340034723489
:10197000003461340034633400346B340034503448
:1019800000346F340034693400346E3400347434FD
:1019900000340534013409340634A13401340534EB
:1019A00007341934E0342934E734253401347534EC
:1019B0000134953408348134023475340834953454
:1019C0000134813403342634FF34003419340034B4
:1019D0002A34FF34003495340634813400347534AD
:1019E000013495340334053408341934013429346E
:1019F000033425340134913402347534053495347C
:101A0000013491340334C034323403344C34003460
:101A10006934003474340034653400342D340034B7
:101A20004F3400346E3400342034003454340034E5
:101A30006534003463340034683400346E34003468
:101A40006F3400346C3400346F3400346734003445
:101A50007934003420340034433400346F3400349B
:101A600072340034703400342E34003409340234BB
:101A700029340034013401340034803432340934E0
:101A800004340034003402340334013401340234A9
:101A900009342134103400340034013422343B340E
:101AA00000340734053481340334083400340534F9
:101AB0000734053401340334083400340534123457
:101AC0000134103401340034003400340834B334A9
:101AD00004341934303422340134013402340034F3
:101AE0000134FF3FFF3FFF3FFF3FFF3FFF3FFF3F0F
:020000040001F9
:04000E00A408C31D62
:00000001FF
